:020000040800F2
:1000000028580020E9020008F9120008A712000889
:10001000F512000833050008E11400080000000094
:10002000000000000000000000000000290200089D
:100030007D06000800000000850200081913000872
:100040000303000803030008030300080303000878
:100050000303000803030008030300080303000868
:100060000303000803030008030300080303000858
:100070000303000803030008030300080303000848
:100080000303000803030008030300080303000838
:100090000303000803030008030300080303000828
:1000A0000303000803030008030300080303000818
:1000B0000303000803030008030300080303000808
:1000C00003030008030300080303000803030008F8
:1000D00003030008030300080303000803030008E8
:1000E00003030008030300080303000803030008D8
:1000F00003030008F11300080303000803030008CA
:1001000003030008030300080303000803030008B7
:1001100003030008030300080303000803030008A7
:100120000303000803030008030300080303000897
:100130000303000803030008030300080303000887
:100140000303000803030008030300080303000877
:100150000303000803030008030300080303000867
:100160000303000803030008030300080303000857
:100170000303000803030008030300080000000055
:10018000030300080303000800F002F800F03CF845
:100190000AA090E8000C82448344AAF10107DA45E2
:1001A00001D100F031F8AFF2090EBAE80F0013F0F8
:1001B000010F18BFFB1A43F001031847AC260000DB
:1001C000CC260000103A24BF78C878C1FAD852076C
:1001D00024BF30C830C144BF04680C6070470000C1
:1001E0000023002400250026103A28BF78C1FBD840
:1001F000520728BF30C148BF0B6070471FB502F0DF
:1002000021FB1FBD10B510BD00F059F91146FFF7D5
:10021000F5FF01F083F900F077F903B4FFF7F2FF7F
:1002200003BC00F07FF900002C4B19680868B0E8A7
:10023000F04F80F30988BFF36F8F4FF0000080F319
:10024000118870470000000008480068006880F3CB
:1002500008884FF0000080F3148862B661B6BFF3DF
:100260004F8FBFF36F8F00DF00BF00BF08ED00E0CE
:10027000DFF80C00016841F470010160704700BFB5
:1002800088ED00E0EFF30980BFF36F8F134B1A681E
:100290001EF0100F08BF20ED108A20E9F04F10600B
:1002A00009B44FF0500080F31188BFF34F8FBFF3B4
:1002B0006F8F01F07BFE4FF0000080F3118809BCC6
:1002C00019680868B0E8F04F1EF0100F08BFB0ECD6
:1002D000108A80F30988BFF36F8F704700000020F9
:1002E000EFF3058070470000094880470948004740
:1002F000FEE7FEE7FEE7FEE7FEE7FEE7FEE7FEE7D6
:10030000FEE7FEE704480549054A064B7047000032
:10031000DD13000889010008285200202858002019
:10032000285400202854002053EA020C00F0698071
:100330002DE9F04B4FF00006002B1FBFB3FA83F5F9
:1003400003FA05F424FA05F65E4012BF1643B2FA2A
:1003500082F502FA05F4C5F120051EBF22FA05FC5C
:1003600044EA0C04203556EA044C4FEA144418BF02
:10037000641C4FF000084FF00009904271EB030C31
:1003800039D3002919BFB1FA81F701FA07F6B0FA9B
:1003900080F700FA07F6C7F120071EBF20FA07FC16
:1003A00046EA0C062037B6FBF4FCA7EB0507103F26
:1003B00007F01F0BCBF120060CFA0BFB2CFA06F60C
:1003C00044BFB3460026202FA4BF5E464FF0000B6B
:1003D0005BEA060C08BF4FF0010B19EB0B09ABFBF6
:1003E000027C48EB0608C01B06FB02CC0BFB03CCCF
:1003F00071EB0C01C1E70B46024641464846BDE899
:10040000F08B13B54FF000004FF00001AFF3008008
:10041000BDE81C40704702F0FF0343EA032242EAB2
:10042000024200F002B84FF000020429C0F012802E
:1004300010F0030C00F01B80CCF1040CBCF1020F97
:1004400018BF00F8012BA8BF20F8022BA1EB0C016C
:1004500000F00DB85FEAC17C24BF00F8012B00F862
:10046000012B48BF00F8012B70474FF0000200B588
:10047000134694469646203922BFA0E80C50A0E8C7
:100480000C50B1F12001BFF4F7AF090728BFA0E875
:100490000C5048BF0CC05DF804EB890028BF40F841
:1004A000042B08BF704748BF20F8022B11F0804F83
:1004B00018BF00F8012B70477047704770477546AA
:1004C00000F02CF8AE4605006946534620F00700C0
:1004D000854618B020B5FFF715FFBDE820404FF066
:1004E00000064FF000074FF000084FF0000B21F01E
:1004F0000701AC46ACE8C009ACE8C009ACE8C009EB
:10050000ACE8C0098D46704710B50446AFF30080D3
:100510002046BDE81040FFF780BE0000004870474D
:10052000C851002001491820ABBEFEE7260002009A
:10053000704700BFFEE700001CB5064801210023FC
:100540008022CDE9001004A1064801F043FE01F02D
:10055000DDFC1CBD78000020204361725F53746194
:1005600072740000690500081CB5044601F080FBA8
:100570001748052100238022CDE9001015A1184855
:1005800001F028FE1748042100238A01CDE900105C
:1005900015A1194801F01EFE1848032100234FF44D
:1005A0008072CDE9001016A1184801F013FE18481A
:1005B000022100238022CDE9001016A1184801F085
:1005C00009FE002001F024FC01F07CFB1CBD0000B2
:1005D0007C000020446174615F5461736B00000013
:1005E0004506000880000020436F6E74726F6C5FD8
:1005F0005461736B00000000250600088400002091
:1006000053686F775F5461736B000000FD12000840
:100610008800002044656275675F5461736B000059
:100620007F0600080AE04FF0FF320121002001F0B0
:1006300081FA03480078401C01490870F3E7000084
:100640008D0000201CB501F05DFF019011E009480C
:100650000078401C0749087000200223024601462A
:1006600000900548006801F055FE0A2101A801F03C
:10067000E5FDECE78C00002080000020704702E0E0
:10068000642001F097FBFBE772B600BFFEE70000B5
:1006900001480068704700006800002003480068B7
:1006A0000349097808440149086070476800002040
:1006B0007000002010B50D48006840F400700B4930
:1006C00008600846006840F48060086008460068DA
:1006D00040F480700860032000F0E0F80F2000F084
:1006E00007F800F05FF8002010BD0000003C024059
:1006F0002DE9F04188B004460027B84600BF00202D
:1007000001902348006840F4807021490860084641
:10071000006800F48070019000BF00BF02A903A828
:1007200000F092F9069F1FB900F0B6F9054602E005
:1007300000F0B2F945001748B5FBF0F0A0F1010850
:1007400015481649086040F2E7311448C160C0F806
:100750000480002101618160816100F055FC064642
:1007600096B90E4800F084FC06466EB92D2000F0C4
:1007700043F8102C07D2002221462D2000F050F81B
:100780000748046000E00126304608B0BDE8F0816B
:100790004038024040420F000020004080510020BD
:1007A0006C00002008B500BF0020009011480068D0
:1007B00040F480400F4908600846006800F480401B
:1007C000009000BF00BF00BF00200090081F00681D
:1007D00040F08050091F08600846006800F0805013
:1007E000009000BF00BF00220F21901E00F018F8FB
:1007F00008BD0000443802400146084600280DDBD1
:1008000000BF00BF00F01F0301229A4043099B0074
:1008100003F1E023C3F8002100BF00BF00BF704711
:100820002DE9F05F80460D461646002700F05AFE7F
:10083000074639462A46334601F00700C0F1070A49
:10084000BAF1040F02D94FF0040A01E0C0F1070A1F
:10085000D14600F1040ABAF1070F02D24FF0000AA4
:1008600001E0A0F1030AD4464FF0010A0AFA09FA9E
:10087000AAF1010A0AEA020A0AFA0CFA4FF0010B7D
:100880000BFA0CFBABF1010B0BEA030B4AEA0B046E
:100890002146404600F02EFEBDE8F09F00BF00F06C
:1008A0000702064B19684FF6FF031940044B0B4330
:1008B00043EA0221014B196000BF70470CED00E0D4
:1008C0000000FA0570B504460D460CB9012070BD54
:1008D0005848006800F00700A84209D255490D7039
:1008E0000846006800F00700A84201D00120EEE7AA
:1008F000207800F0020002281DD1207800F00400CA
:10090000042805D14C48006840F4E0504A4908608A
:10091000207800F00800082805D14748006840F416
:100920006040454908604448006820F0F000A16834
:10093000084341490860207800F00100A8B36068CE
:10094000012807D13C4808380068C0F34040B8B9D6
:100950000120BCE76068022802D06068032807D144
:10096000354808380068C0F3406048B90120AEE758
:10097000314808380068C0F3400008B90120A6E7F4
:100980002D48006820F00300616808432A49086088
:10099000FFF77EFE064609E0FFF77AFE801B41F274
:1009A0008831884202D9032091E707E02248006895
:1009B00000F00C006168B0EB810FEDD11D480068BC
:1009C00000F00700A84209D91A490D7008460068CE
:1009D00000F00700A84201D0012078E7207800F05D
:1009E0000400042807D11448006820F4E050E168AE
:1009F000084311490860207800F00800082808D151
:100A00000D48006820F46040216940EAC1000A49AD
:100A1000086000F051F808490968C1F30311074A5A
:100A2000515CC8400649086006480068FFF760FE50
:100A300000204CE7003C0240083802404E280008E5
:100A4000740000206C0000200F2202600D4A126822
:100A500002F0030242600B4A126802F0F002826068
:100A6000084A126802F4E052C260064A126802F4B0
:100A70006042D2080261044A126802F007020A606A
:100A80007047000008380240003C024001480068FE
:100A9000704700007400002000B5FFF7F7FF04491D
:100AA0000968C1F38221034A515CC84000BD0000BF
:100AB000083802405E2800082DE9F0470024002590
:100AC0000026A1462548006800F00C0020B104284B
:100AD00005D008283AD105E0DFF8849039E0DFF846
:100AE000849036E01D48001F006800F03F041B485A
:100AF000001F006800F4800078B11A481749091FE8
:100B00000968C1F38811A0FB017001462246002349
:100B10003846FFF709FC05460EE011480F49091F4A
:100B20000968C1F38811A0FB017001462246002329
:100B30003846FFF7F9FB05460848001F0068C0F378
:100B40000140401C4600B5FBF6F902E0DFF81090CA
:100B500000BF00BF4846BDE8F087000008380240EB
:100B60000024F40000127A00F8B504460CB9012004
:100B7000F8BD207800F00100002874D0F948006822
:100B800000F00C0004280DD0F648006800F00C00BE
:100B9000082813D1F348001F006800F48000B0F566
:100BA000800F0BD1EF4808380068C0F340400028A0
:100BB00059D06068002856D10120D9E700BF60688D
:100BC000B0F5803F08D1E7480838006840F480302D
:100BD000E449083908601EE06068B0F5A02F0DD127
:100BE000E0480838006840F48020DE490839086091
:100BF0000846006840F4803008600CE0D9480838A6
:100C0000006820F48030D749083908600846006839
:100C100020F48020086000BF606890B1FFF738FDC5
:100C2000054606E0FFF734FD401B642801D9032088
:100C30009EE7CC4808380068C0F340400028F1D057
:100C400011E0FFF725FD054606E0FFF721FD401BFB
:100C5000642801D903208BE7C24808380068C0F334
:100C600040400028F1D1207800F0020002285FD136
:100C7000BC48006800F00C0058B1BA48006800F0A9
:100C80000C0008281CD1B748001F006800F4800041
:100C9000B0B9B44808380068C0F3400020B1E0683B
:100CA000012801D0012063E7AE480838006820F031
:100CB000F800216940EAC100AA490839086037E014
:100CC000E06800B30120A8490860FFF7E1FC054691
:100CD00006E0FFF7DDFC401B022801D9032047E7AF
:100CE000A04808380068C0F340000028F1D09D48B3
:100CF0000838006820F0F800216940EAC1009949ED
:100D00000839086014E0002097490860FFF7C0FC2C
:100D1000054606E0FFF7BCFC401B022801D9032072
:100D200026E7904808380068C0F340000028F1D159
:100D3000207800F0080008282CD16069A8B10120B3
:100D40008A490860FFF7A4FC054606E0FFF7A0FC0F
:100D5000401B022801D903200AE782486C30006852
:100D6000C0F340000028F1D014E000207F49086063
:100D7000FFF78EFC054606E0FFF78AFC401B0228C1
:100D800001D90320F4E677486C300068C0F34000D6
:100D90000028F1D1207800F00400042870D1002749
:100DA00070483830006800F0805090B900BF0020D3
:100DB00000906C483830006840F080506949383104
:100DC00008600846006800F08050009000BF00BF37
:100DD00001276748006800F48070B0B96448006873
:100DE00040F4807062490860FFF752FC054606E057
:100DF000FFF74EFC401B022801D90320B8E65C48EF
:100E0000006800F480700028F2D000BFA0680128BC
:100E100008D154486830006840F0010051496831F9
:100E200008601DE0A06805280DD14E4868300068B4
:100E300040F004004B49683108600846006840F003
:100E4000010008600CE047486830006820F00100AD
:100E50004449683108600846006820F004000860D2
:100E600000BFA068A8B1FFF713FC054609E0FFF733
:100E70000FFC401B41F28831884202D9032077E6FB
:100E800026E0384868300068C0F340000028EED003
:100E900013E0FFF7FDFB054608E0FFF7F9FB401BF9
:100EA00041F28831884201D9032061E62D4868303B
:100EB0000068C0F340000028EFD1012F07D1294876
:100EC0003830006820F0805026493831086000BF73
:100ED000A069002845D02348006800F00C000828CD
:100EE0005DD0A069022845D100201F490866FFF7A0
:100EF000CFFB054606E0FFF7CBFB401B022801D9DC
:100F0000032035E6174808380068C0F34060002821
:100F1000F1D1D4E907010843616A40EA8111012255
:100F2000A06AC2EB500041EA00412C20005D41EA7A
:100F300000600C49091F086001200B490866FFF793
:100F4000A7FB054606E0FFF7A3FB401B022801D9DB
:100F500003200DE6034808380068C0F3406000280D
:100F6000F1D049E00838024000004742800E474275
:100F700000700040002021490866FFF789FB054604
:100F800006E0FFF785FB401B022801D90320EFE5AF
:100F90001B480068C0F340600028F2D12CE0A06933
:100FA000012800D1E4E51648001D0668A069012863
:100FB00020D006F48001E06981421BD106F03F0198
:100FC000206A814216D147F6C0703040616AB0EBAA
:100FD000811F0FD106F440310122A06AC2EB5000FC
:100FE000B1EB004F06D106F070612C20005DB1EB33
:100FF000006F01D00120BBE50020B9E500004742A9
:10100000003802407047704710B504460CB9012003
:1010100010BD94F83D0028B9002084F83C0020461B
:1010200000F025F8022084F83D00211D206800F022
:10103000E7F9012084F8460000BF84F83E00012152
:101040003F200155402001554120015500BF00BF00
:10105000012084F8420043200155442001554520D9
:10106000015500BF012084F83D000020D0E7704703
:10107000014691F83D00012801D00120704702206F
:1010800081F83D000868C06840F001000B68D86036
:101090001A4B086898421BD00868B0F1804F17D0EF
:1010A000174B0868984213D0164B086898420FD027
:1010B000154B086898420BD0144B0868984207D02B
:1010C000134B0868984203D0124B086898420CD121
:1010D0000868806800F00702062A0CD008680068DB
:1010E00040F001000B68186005E00868006840F0F7
:1010F00001000B6818600020C0E7000000000140FC
:101100000004004000080040000C004000040140C2
:101110000040014000180040704770B50446206848
:10112000C5682068066906F00200022819D105F09A
:101130000200022815D1401F216808610120207794
:101140002068806900F0030018B12046FFF7E4FF33
:1011500005E0204600F097F8204600F095F80020C2
:10116000207706F00400042819D105F004000428B3
:1011700015D1C0432168086102202077206880696A
:1011800000F4407018B12046FFF7C6FF05E0204686
:1011900000F079F8204600F077F80020207706F07C
:1011A0000800082819D105F00800082815D1C04307
:1011B00021680861042020772068C06900F00300DE
:1011C00018B12046FFF7A8FF05E0204600F05BF8C5
:1011D000204600F059F80020207706F01000102873
:1011E00019D105F01000102815D1C04321680861FD
:1011F000082020772068C06900F4407018B12046AC
:10120000FFF78AFF05E0204600F03DF8204600F099
:101210003BF80020207706F0010048B105F00100FE
:1012200030B16FF0010021680861204600F02EF80F
:1012300006F08000802809D105F08000802805D1C3
:10124000C043216808612046FFF7DCFE06F040003D
:10125000402809D105F04000402805D1C04321684D
:101260000861204600F01EF806F02000202809D171
:1012700005F02000202805D1C043216808612046E0
:10128000FFF7C1FE70BD70477047000010B50446FF
:1012900003492068884201D1FFF700FA10BD000021
:1012A00000200040704700BFFEE7000008B500BF07
:1012B000002000900E48006840F080000C49086053
:1012C0000846006800F08000009000BF00BF00BF2B
:1012D000002000900846006840F0010008600846C1
:1012E000006800F00100009000BF00BF08BD0000D2
:1012F0003038024000BFFEE700BFFEE700BF07E056
:1013000004480078401C03490870322000F052FD68
:10131000F6E700008E00002010B501F0E3F8012888
:1013200001D000F03DFF10BD00B593B0302107A8FB
:10133000FFF79BF8142102A8FFF797F800BF0020E1
:1013400001902448006840F0805022490860084617
:10135000006800F08050019000BF00BF00BF002077
:1013600001901D48006840F480401B490860084611
:10137000006800F48040019000BF00BF012007908A
:101380000004089002200D9041050E9104210F9158
:10139000A8211091022111910421129107A8FFF7B1
:1013A000E3FB08B1FFF770F90F20029002200390D1
:1013B000002004904FF4A05005904FF48050069008
:1013C000052102A8FFF77EFA08B1FFF75DF913B017
:1013D00000BD000040380240007000400348006833
:1013E00040F47000014908607047000088ED00E09B
:1013F00010B50248FFF791FE10BD0000805100209B
:1014000010B502682B4B98420ED0B0F1804F0BD034
:10141000294B984208D0294B984205D0284B984236
:1014200002D0284B984203D122F070024B681A4335
:10143000204B984220D0B0F1804F1DD01E4B9842D7
:101440001AD01E4B984217D01D4B984214D01D4BFA
:10145000984211D01C4B98420ED01C4B98420BD096
:101460001B4B984208D01B4B984205D01A4B984210
:1014700002D01A4B984203D122F44072CB681A432F
:1014800022F080034C6943EA04028B68C3620B6854
:101490008362084B984202D00A4B984201D10B69F3
:1014A0000363036843F004030360012343610260A4
:1014B00010BD000000000140000400400008004092
:1014C000000C004000040140004001400044014085
:1014D0000048014000180040001C0040002000406F
:1014E00000BFFEE702480068C0F30220704700001A
:1014F0000CED00E010B5002804DB0A07130E054AC6
:10150000135406E00A07140E034A00F00F031B1FD2
:10151000D45410BD00E400E018ED00E0FFF7CAF875
:10152000FFF702FFFFF7C2FEFFF706F800BFFEE776
:101530002DE9F04105460E46264807682648006812
:10154000001D00F04BFB50B92348006890F82C10A8
:101550000120884021490968814320480160681CB6
:10156000D8B9D6B11E4948681B49096888601A492C
:1015700082680968CA6018490968091D8268516053
:1015800015490968091D8160154A134909684A61AE
:1015900011460968491C11601AE07C190E48006860
:1015A0004460BC4207D20C480168091D0D48006820
:1015B00000F038FB0CE008480168091D0A48006883
:1015C00000F030FB09480068844201D207480460FB
:1015D000BDE8F08114000020000000201800002069
:1015E0006C010020080000200400002030000020D2
:1015F00010B5044600F03CFB31480068401C3049FF
:1016000008603048006840B92E4804600846006809
:1016100001280DD100F042F90AE02B48006838B9E2
:1016200028480068C06AE16A884201D825480460F9
:1016300026480068401C2549086008460068606428
:1016400094F82C100120884021490968084320495A
:101650000860E16A01EB81011E4A02EB81014868E2
:10166000A0608268E260211D826851608160E16A49
:1016700001EB8101174A02EB81026261E16A01EB31
:101680008101144A52F82110491CE26A02EB8202DD
:10169000104B43F8221000F015FB0B48006868B1AE
:1016A00008480068C06AE16A884207D24FF080505B
:1016B00009490860BFF34F8FBFF36F8F10BD000063
:1016C00010000020000000201C0000202C00002042
:1016D000180000209000002004ED00E010B516E096
:1016E00000F0C6FA0C48C068C468201D00F076FA05
:1016F0000A480068401E0949086009480068401E01
:101700000749086000F0DEFA204600F00BF80448B4
:1017100000680028E4D110BD58010020100000200E
:101720000C00002010B50446206B00F0E9FA2046BA
:1017300000F0E6FA10BD000030B54FF4A0431548A4
:1017400000F007042CB1C01D20F00700114C041B51
:101750001B1B0246104C226000240F4D6C60D018F9
:10176000083820F007000D4C206000240B4D2D6838
:101770006C600A4D2D682C601146441A4C60074C71
:1017800024680C60064D4C682C60064D4C682C603B
:1017900030BD0000800100204C00002054000020DB
:1017A0005C0000205800002000BFFFF797FF0648AC
:1017B00000680128F9D94FF0805004490860BFF350
:1017C0004F8FBFF36F8FF0E79000002004ED00E033
:1017D0002DE9F05F82460F4690469B460A9E0C9C80
:1017E0004FEA8801A522206BFEF715FEA8F1010043
:1017F000216B01EB800929F0070909F0070008B9FE
:10180000012000E0002050B900BF502080F3118873
:10181000BFF34F8FBFF36F8F00BF00BFFEE77FB1F5
:10182000002507E0795D04F134004155785D00B989
:1018300002E06D1C102DF5D300BF0021432001559F
:10184000072E01D2012000E0002050B900BF502037
:1018500080F31188BFF34F8FBFF36F8F00BF00BFBE
:10186000FEE7072E00D30626E662E664201D00F0A0
:10187000D6F904F1180000F0D2F92461C6F107008E
:10188000A06164625A465146484600F03DF9206026
:101890000B9808B10B980460BDE8F09F10B50024C8
:1018A00007E004EB84010F4A02EB810000F0AAF983
:1018B000641C072CF5D30C4800F0A4F90B4800F089
:1018C000A1F90B4800F09EF90A4800F09BF90A487C
:1018D00000F098F90448094908600448084908607C
:1018E00010BD0000900000201C01002030010020ED
:1018F00044010020580100206C0100200400002059
:101900000800002010B50146164800E00068036892
:101910008B42FBD30246436813448B4204D1436895
:101920004C682344436001460A464B6813440468EC
:10193000A34211D10C4C03682468A34208D04B6821
:101940000468646823444B6003681B680B6005E00F
:10195000054B1B680B6001E003680B60884200D0F8
:10196000016010BD4C0000205400002009480068B0
:10197000006808B9012000E0002020B14FF0FF30DE
:101980000549086005E003480068C068006802492E
:101990000860704704000020300000200E480068F6
:1019A000401C08B9012000E0002050B900BF5020C1
:1019B00080F31188BFF34F8FBFF36F8F00BF00BF5D
:1019C000FEE700BF502080F31188BFF34F8FBFF3B5
:1019D0006F8F00BF00BFFEE7400000202DE9F047F9
:1019E00005464FF0000900F0D9FA4248006808B9EE
:1019F000FFF7A2FE75B105F00700C0F11008C8F1AD
:101A0000FF30A84201D2012000E0002008B945447F
:101A100000E00025012000EBE570002853D0002DE8
:101A200051D03548006885424DD8344E3046046860
:101A300001E0264624686068A84202D22068002897
:101A4000F7D12C48006884423DD0306800F1080985
:101A5000206830606068401B102819D9671907F0AA
:101A6000070008B9012000E0002050B900BF502055
:101A700080F31188BFF34F8FBFF36F8F00BF00BF9C
:101A8000FEE76068401B786065603846FFF73AFF04
:101A9000194960680968081A17490860084600680B
:101AA00017490968884203D213480068144908603E
:101AB000606840F0004060600020206011480068CD
:101AC000401C1049086000F001FE09F0070008B949
:101AD000012000E0002050B900BF502080F31188A1
:101AE000BFF34F8FBFF36F8F00BF00BFFEE74846C5
:101AF000BDE8F08754000020580000204C00002072
:101B00005C00002060000020001F4FF08073036025
:101B1000001F21F001030360001F054B0360143810
:101B20000260001F6FF0020303602038704700005E
:101B30009D1900082DE9F04104460F4616460CB9E0
:101B4000012000E0002050B900BF502080F3118830
:101B5000BFF34F8FBFF36F8F00BF00BFFEE700F0F2
:101B600087F81C480068543050F8240080B90121DF
:101B7000184800685830015556B13046FFF7D8FC78
:101B80004FF0805014490860BFF34F8FBFF36F8F41
:101B900000F098F800F06CF80E480068543050F8E7
:101BA00024506DB137B100210A480068543040F824
:101BB000241005E0681E07490968543141F82400E3
:101BC0000021044800685830015500F07BF8284691
:101BD000BDE8F0810000002004ED00E001460A6944
:101BE000D1E901309860D1E901035860506888421A
:101BF00001D188685060002008611068401E1060A4
:101C00001068704700F1080141604FF0FF318160BA
:101C100000F10801C16001610021016070470021ED
:101C20000161704710B502460B685C1C0CB9106965
:101C300007E002F1080000E04068446824689C4224
:101C4000FAD944684C604C68A160886041600A61C0
:101C50001468641C146010BD42684A6093688B600D
:101C6000936859609160086103685B1C036070476A
:101C700000BF502080F31188BFF34F8FBFF36F8FE9
:101C800000BF0E480068401C0C4908600846006808
:101C9000012812D10A480068C0B208B9012000E04A
:101CA000002050B900BF502080F31188BFF34F8F40
:101CB000BFF36F8F00BF00BFFEE7704740000020FA
:101CC00004ED00E00D48006850B900BF502080F3DB
:101CD0001188BFF34F8FBFF36F8F00BF00BFFEE7C8
:101CE00006480068401E054908600846006820B99B
:101CF000002080F3118800BF00BF70474000002023
:101D000070B506463546002E3BD0083D2C4660682F
:101D1000C00F50B900BF502080F31188BFF34F8F20
:101D2000BFF36F8F00BF00BFFEE7206808B9012036
:101D300000E0002050B900BF502080F31188BFF3AD
:101D40004F8FBFF36F8F00BF00BFFEE76068C00F0B
:101D5000B8B12068A8B9606820F00040606000F069
:101D60001DF908496068096808440649086020466A
:101D7000FFF7C8FD04480068401C0349086000F0F4
:101D8000A5FC70BD580000206400002000204FF02A
:101D9000E02108618861064800684FF47A71B0FB61
:101DA000F1F0401E4FF0E0214861072008617047C4
:101DB0007400002070B504460025D4B112480068B4
:101DC00008B9012000E0002050B900BF502080F386
:101DD0001188BFF34F8FBFF36F8F00BF00BFFEE7C7
:101DE00000F0DCF800212046FFF7A2FB00F06EFCBB
:101DF00005463DB94FF0805004490860BFF34F8F4E
:101E0000BFF36F8F70BD00003C00002004ED00E0C8
:101E100070B50546FFF72CFF15B93248006800E0A1
:101E200028460446201DFFF7D9FE78B9E06A00EB8A
:101E300080002D4951F8200040B994F82C10012061
:101E400088402A490968814328480160A06A18B17E
:101E500004F11800FFF7C2FE25480068401C244921
:101E6000086020480068844209D1211D2148FFF7FD
:101E7000F3FE21480068401C1F49086006E01F4827
:101E80000068401E1D490860FFF770FDFFF71AFF4C
:101E900014480068844202D02046FFF743FC1848EB
:101EA0000068E8B10F480068844219D115480068FD
:101EB00008B9012000E0002050B900BF502080F395
:101EC0001188BFF34F8FBFF36F8F00BF00BFFEE7D6
:101ED0004FF080500C490860BFF34F8FBFF36F8FF6
:101EE00070BD0000000000209000002018000020BD
:101EF0002C000020580100200C00002010000020C1
:101F00001C0000203C00002004ED00E01CB51B4834
:101F100000210B468022CDE9001019A11A4800F0DB
:101F200059F90446012C15D100BF502080F31188C7
:101F3000BFF34F8FBFF36F8F00BF4FF0FF301349D8
:101F4000086001201249086000201249086000F072
:101F500073F810E0601C08B1012000E0002050B9C7
:101F600000BF502080F31188BFF34F8FBFF36F8FF6
:101F700000BF00BFFEE7084800681CBD3400002019
:101F800049444C4500000000A9170008300000201B
:101F90001C000020140000203800002002480068C7
:101FA000401C0149086070473C0000201D48006843
:101FB00018B101201C49086032E000201A4908606D
:101FC0001A480068B0FA80F0C0F11F0101EB8100EF
:101FD000174A52F8200008B1012000E0002050B953
:101FE00000BF502080F31188BFF34F8FBFF36F8F76
:101FF00000BF00BFFEE701EB81020D4B03EB820047
:1020000042685268426000F108024368934202D17C
:102010004268526842604268D268064B1A6000BF4C
:10202000704700003C000020240000201800002021
:1020300090000020000000201CB552480068524962
:10204000884201D0012000E0002050B900BF50209C
:1020500080F31188BFF34F8FBFF36F8F00BF00BFB6
:10206000FEE7484800684849491E884201D00120DF
:1020700000E0002050B900BF502080F31188BFF36A
:102080004F8FBFF36F8F00BF00BFFEE73F49084689
:1020900000780190FF200A461070084600780090F2
:1020A0009DF8000000F0F0009DF80020904201D162
:1020B000012000E0002050B900BF502080F31188BB
:1020C000BFF34F8FBFF36F8F00BF00BFFEE79DF8D8
:1020D000000000F050002E4A107007202D4A1060BA
:1020E00009E02C480068401E2A4A10609DF8000054
:1020F0004006000E00909DF8000000F0800080284F
:10210000EFD024480068C0F10700042801D1012065
:1021100000E0002050B900BF502080F31188BFF3C9
:102120004F8FBFF36F8F00BF00BFFEE719480068F5
:102130000002184A10601046008800F4E060106049
:10214000124A019810700F482030006840F4700067
:102150000C49203108600846006840F07040086073
:10216000FFF714FE00200C490860FEF781F80B48C9
:10217000006840F0404009490860FEF765F800201B
:102180001CBD000000ED00E071C20F4100E400E062
:1021900044000020480000204000002034EF00E010
:1021A00010B500BF502080F31188BFF34F8FBFF3ED
:1021B0006F8F00BF00F0ACF918B14FF080500449A8
:1021C000086000BF002080F3118800BF10BD000030
:1021D00004ED00E02DE9FF4F85B0804689461746A3
:1021E000DDE912ABB800FFF7F9FB064676B15C20DB
:1021F000FFF7F4FB04462CB15C212046FEF735F9CD
:10220000266304E03046FFF77BFD00E000247CB14C
:102210000020CDE900ABCDE902403A4649464046B0
:10222000089BFFF7D5FA2046FFF7E2F9012501E008
:102230004FF0FF35284609B0BDE8F08F2DE9F04793
:1022400004460F464FF0000954B900BF502080F3F8
:102250001188BFF34F8FBFF36F8F00BF00BFFEE742
:102260000FB1012000E0002050B900BF502080F3E2
:102270001188BFF34F8FBFF36F8F00BF00BFFEE722
:102280002148006808B9012000E0002050B900BFD3
:10229000502080F31188BFF34F8FBFF36F8F00BFC3
:1022A00000BFFEE7FFF77AFE184806682068C519E8
:1022B0002068B04207D92068A8420BD9B54209D995
:1022C0004FF0010906E02068A84201D8B54201D9C3
:1022D0004FF001092560B9F1000F03D0A81B0021C0
:1022E000FFF726F900F0F2F98046B8F1000F07D1A8
:1022F0004FF0805006490860BFF34F8FBFF36F8FD8
:102300004846BDE8F08700003C0000201400002093
:1023100004ED00E02DE9F05F07460D4616469846AD
:10232000DDF828A04FF0010B0DB9012000E00020DE
:1023300050B900BF502080F31188BFF34F8FBFF317
:102340006F8F00BF00BFFEE757B900BF502080F37A
:102350001188BFF34F8FBFF36F8F00BF00BFFEE741
:102360003C46FFF785FCBAF1000F05D004F154009C
:1023700050F82500CAF8000004F1580010F8059044
:1023800002214155B8F1050F29D2DFE808F02703F3
:102390000D171C0004F1540050F82500304304F1DF
:1023A000540141F825002DE004F1540050F82500B7
:1023B000401C04F1540141F8250023E004F15400CD
:1023C00040F825601EE0B9F1020F04D004F154007A
:1023D00040F8256001E04FF0000B13E012E03C48AC
:1023E000006808B9012000E0002050B900BF50206B
:1023F00080F31188BFF34F8FBFF36F8F00BF00BF13
:10240000FEE700BF00BFB9F1010F5BD16069D4E9FD
:1024100002128A60D4E902214A60211D42688A4280
:1024200001D1E1684160002262610168491E0160DA
:1024300094F82C1001208840264909680843254952
:102440000860E16A01EB8101234A02EB81014868DF
:10245000A0608268E260211D826851608160E16A4B
:1024600001EB81011C4A02EB81026261E16A01EB2E
:102470008101194A52F82110491CE26A02EB8202DA
:10248000154B43F82210A06A08B9012000E0002093
:1024900050B900BF502080F31188BFF34F8FBFF3B6
:1024A0006F8F00BF00BFFEE70C49E06A0968C96A88
:1024B000884207D94FF0805009490860BFF34F8F19
:1024C000BFF36F8FFFF7FEFB5846BDE8F09F00009B
:1024D00014000020180000209000002000000020C0
:1024E00004ED00E00549096809B9012005E0044947
:1024F000096809B9022000E0002070471C00002094
:102500003C000020014908687047000014000020CA
:102510002DE9F0414FF000086148006800287DD1A6
:1025200060480068451C5F48056015BB5E48006850
:10253000006808B9012000E0002050B900BF502019
:1025400080F31188BFF34F8FBFF36F8F00BF00BFC1
:10255000FEE75548076855480068534908605348E6
:10256000076053480068401C51490860FFF7FEF9B6
:1025700000BF50480068854277D300BF4A480068D2
:10258000006808B9012000E0002020B14FF0FF30C2
:102590004849086068E044480068C068C4686668E4
:1025A000B54202D2434806605EE06069D4E9021297
:1025B0008A60D4E902214A60211D42688A4201D121
:1025C000E1684160002262610168491E0160A06A01
:1025D00098B1A06AD4E907128A60D4E907214A6059
:1025E00004F1180142688A4201D1216A4160002247
:1025F000A2620168491E016000BF94F82C100120FE
:1026000088402D49096808432B490860E16A01EBBD
:1026100081012A4A02EB8101486800E037E0A060AE
:102620008268E260211D826851608160E16A01EB8D
:102630008101224A02EB81026261E16A01EB8101C0
:102640001E4A52F82110491CE26A02EB82021B4B1F
:1026500043F822101A49E06A0968C96A88428DD98C
:102660004FF001088AE700E000BF15480068C06A23
:1026700000EB8000114951F82000012801D94FF0EA
:1026800001081048006808B14FF0010804E00E4846
:102690000068401C0C4908604046BDE8F08100001D
:1026A0003C0000201400002004000020080000204E
:1026B000280000203000002018000020900000209A
:1026C00000000020240000202000002070B500241D
:1026D00000265348006850B900BF502080F311888D
:1026E000BFF34F8FBFF36F8F00BF00BFFEE7FFF751
:1026F000BFFA4B480068401E494908600846006818
:1027000000287DD147480068002879D05BE0464822
:10271000C068C468A06AD4E907128A60D4E90721B6
:102720004A6004F1180142688A4201D1216A41607D
:102730000022A2620168491E01606069D4E90212A8
:102740008A60D4E902214A60211D42688A4201D18F
:10275000E1684160002262610168491E016094F8ED
:102760002C10012088403149096808432F4908602E
:10277000E16A01EB81012E4A02EB81014868A06009
:102780008268E260211D826851608160E16A01EB2C
:102790008101274A02EB81026261E16A01EB81015A
:1027A000234A52F82110491CE26A02EB8202204BB4
:1027B00043F822101F49E06A0968C96A884202D3B7
:1027C00001201D4908601848006808B9012000E090
:1027D000002000289BD00CB1FFF7C8F81748056807
:1027E00065B100BFFFF794FE10B1012012490860E7
:1027F0006D1E002DF6D10020104908600E4800E043
:1028000009E0006838B1012630070D490860BFF3C0
:102810004F8FBFF36F8FFFF755FA304670BD000042
:102820003C0000201000002044010020180000207F
:102830009000002000000020240000202000002044
:1028400004ED00E04FF04070E1EE100A7047000028
:102850000000000000000102030406070809000050
:102860000000010203040000882800080000002086
:1028700090000000C4010008182900089000002002
:1028800098570000E0010008000000000000000070
:102890000000000000000000000000000000000038
:1028A0000000000000000000000000000000000028
:1028B0000000000000000000000000000000000018
:1028C0000600000000000000AAAAAAAA000000005A
:1028D00000000000000000000000000000000000F8
:1028E00000000000000000000000000000000000E8
:1028F0000000000010000000010000000024F400AF
:1029000000000000000000000000000000000000C7
:082910000000000000000000BF
:040000050800018965
:00000001FF
