:020000040800F2
:1000000068080020E9020008CD1900084519000819
:10001000C9190008DF04000859200008000000008A
:10002000000000000000000000000000290200089D
:10003000E30400080000000085020008D119000850
:100040000303000803030008030300080303000878
:100050000303000803030008030300080303000868
:100060000303000803030008030300080303000858
:100070000303000803030008030300080303000848
:100080000303000803030008030300080303000838
:100090000303000803030008030300080303000828
:1000A0000303000803030008030300080303000818
:1000B0000303000803030008030300080303000808
:1000C00003030008030300080303000803030008F8
:1000D000030300081D2000080303000803030008B1
:1000E00003030008030300080303000803030008D8
:1000F00003030008A91A000803030008030300080B
:1001000003030008030300080303000803030008B7
:1001100003030008030300080303000803030008A7
:100120000303000803030008030300080303000897
:100130000303000803030008030300080303000887
:100140000303000803030008030300080303000877
:100150000303000803030008030300080303000867
:100160000303000803030008030300080303000857
:100170000303000803030008030300080000000055
:10018000030300080303000800F002F800F03CF845
:100190000AA090E8000C82448344AAF10107DA45E2
:1001A00001D100F031F8AFF2090EBAE80F0013F0F8
:1001B000010F18BFFB1A43F0010318471C2200006F
:1001C0003C220000103A24BF78C878C1FAD8520700
:1001D00024BF30C830C144BF04680C6070470000C1
:1001E0000023002400250026103A28BF78C1FBD840
:1001F000520728BF30C148BF0B6070471FB502F0DF
:10020000D9F81FBD10B510BD00F02FF91146FFF74A
:10021000F5FF01F03FFF00F04DF903B4FFF7F2FFE7
:1002200003BC00F055F900002C4B19680868B0E8D1
:10023000F04F80F30988BFF36F8F4FF0000080F319
:10024000118870470000000008480068006880F3CB
:1002500008884FF0000080F3148862B661B6BFF3DF
:100260004F8FBFF36F8F00DF00BF00BF08ED00E0CE
:10027000DFF80C00016841F470010160704700BFB5
:1002800088ED00E0EFF30980BFF36F8F134B1A681E
:100290001EF0100F08BF20ED108A20E9F04F10600B
:1002A00009B44FF0500080F31188BFF34F8FBFF3B4
:1002B0006F8F01F031FF4FF0000080F3118809BC0F
:1002C00019680868B0E8F04F1EF0100F08BFB0ECD6
:1002D000108A80F30988BFF36F8F704700000020F9
:1002E000EFF3058070470000094880470948004740
:1002F000FEE7FEE7FEE7FEE7FEE7FEE7FEE7FEE7D6
:10030000FEE7FEE704480549054A064B7047000032
:10031000951A00088901000868020020680800207A
:10032000680400206804002053EA020C00F0698091
:100330002DE9F04B4FF00006002B1FBFB3FA83F5F9
:1003400003FA05F424FA05F65E4012BF1643B2FA2A
:1003500082F502FA05F4C5F120051EBF22FA05FC5C
:1003600044EA0C04203556EA044C4FEA144418BF02
:10037000641C4FF000084FF00009904271EB030C31
:1003800039D3002919BFB1FA81F701FA07F6B0FA9B
:1003900080F700FA07F6C7F120071EBF20FA07FC16
:1003A00046EA0C062037B6FBF4FCA7EB0507103F26
:1003B00007F01F0BCBF120060CFA0BFB2CFA06F60C
:1003C00044BFB3460026202FA4BF5E464FF0000B6B
:1003D0005BEA060C08BF4FF0010B19EB0B09ABFBF6
:1003E000027C48EB0608C01B06FB02CC0BFB03CCCF
:1003F00071EB0C01C1E70B46024641464846BDE899
:10040000F08B13B54FF000004FF00001AFF3008008
:10041000BDE81C4070474FF0000200B513469446FB
:100420009646203922BFA0E80C50A0E80C50B1F14C
:100430002001BFF4F7AF090728BFA0E80C5048BF60
:100440000CC05DF804EB890028BF40F8042B08BFFE
:10045000704748BF20F8022B11F0804F18BF00F8FA
:10046000012B7047704770477047754600F02CF8B5
:10047000AE4605006946534620F00700854618B091
:1004800020B5FFF73FFFBDE820404FF000064FF0DA
:1004900000074FF000084FF0000B21F00701AC46B9
:1004A000ACE8C009ACE8C009ACE8C009ACE8C009D8
:1004B0008D46704710B50446AFF300802046BDE876
:1004C0001040FFF7AABE0000004870470802002055
:1004D00001491820ABBEFEE726000200704700BFAE
:1004E000FEE7704772B600BFFEE770B50446A56D23
:1004F00000F060F9064694F83500022808D0802004
:10050000606500BF002084F8340000BF012070BD8A
:100510002068006820F016002168086020684069A3
:1005200020F0800021684861206C08B9A06C28B1D7
:100530002068006820F008002168086020680068D2
:1005400020F001002168086010E000F033F9801B02
:1005500005280BD920206065032084F8350000BFF2
:10056000002084F8340000BF0320D0E72068006832
:1005700000F001000028E8D194F85C103F2088408A
:10058000A860012084F8350000BF002084F8340002
:1005900000BF00BFBBE7014691F83500022803D039
:1005A0008020486501207047052081F835000868E3
:1005B000006820F001000A6810600020F3E70000E6
:1005C000F8B502460B460025002400200021D6E0A5
:1005D000012606FA01F51E6806EA0504AC4274D14C
:1005E0001E7906F00306012E04D01E7906F00306DC
:1005F000022E13D190684F000326BE40B0434F0037
:10060000DE68BE4030439060506801268E40B043A3
:100610001E79C6F300168E40304350601E7906F0F6
:100620000306032E09D0D0684F000326BE40B04316
:100630004F009E68BE403043D0601E7906F003062E
:10064000022E13D1CF0802F1200656F827004E07DC
:10065000F70E0F26BE40B0434F07FF0E1E69BE4087
:100660003043CF0802F1200646F8270010684F00FB
:100670000326BE40B0431E7906F003064F00BE407D
:10068000304310605E6806F44036002E76D000BF1E
:10069000002600963C4E366846F480463A4F3E604F
:1006A0003E46366806F48046009600BF00BF374ECF
:1006B0008F0856F827008E07370F0F26BE40B0432D
:1006C000334EB24202D1002624E057E0314EB2420E
:1006D00001D101261EE0304EB24201D1022619E0BE
:1006E0002E4EB24201D1032614E02D4EB24201D16A
:1006F00004260FE02B4EB24201D105260AE02A4E15
:10070000B24201D1062605E0284EB24201D10726A9
:1007100000E008268F073F0FBE4030431B4E8F0876
:1007200046F82700224E3068A0435E6806F4801623
:1007300006B120431E4E3060361D3068A0435E680F
:1007400006F4001606B12043194E361D3060184ECF
:10075000361F3068A0435E6806F4003606B12043B9
:10076000134E361F3060361F3068A0435E6806F4B3
:10077000803606B120430E4E083E3060491C1029D9
:10078000FFF426AFF8BD00004438024008380140AD
:10079000000002400004024000080240000C024039
:1007A000001002400014024000180240001C0240E9
:1007B000083C0140014800687047000040000020EC
:1007C00003480068034909780844014908607047F4
:1007D000400000204800002010B50D48006840F49B
:1007E00000700B4908600846006840F480600860AB
:1007F0000846006840F480700860032000F0E0F8CC
:100800000F2000F007F800F05FF8002010BD000096
:10081000003C02402DE9F04188B004460027B8466C
:1008200000BF002001902348006840F480702149F7
:1008300008600846006800F48070019000BF00BFA7
:1008400002A903A800F092F9069F1FB900F0B6F9BB
:10085000054602E000F0B2F945001748B5FBF0F09C
:10086000A0F1010815481649086040F2E731144824
:10087000C160C0F80480002101618160816100F0E5
:1008800065FC064696B90E4800F094FC06466EB923
:100890002D2000F043F8102C07D2002221462D20F5
:1008A00000F050F80748046000E00126304608B028
:1008B000BDE8F0814038024040420F000020004077
:1008C000A00100204400002008B500BF00200090D7
:1008D0001148006840F480400F49086008460068ED
:1008E00000F48040009000BF00BF00BF00200090D7
:1008F000081F006840F08050091F08600846006823
:1009000000F08050009000BF00BF00220F21901E19
:1009100000F018F808BD00004438024001460846BF
:1009200000280DDB00BF00BF00F01F0301229A402A
:1009300043099B0003F1E023C3F8002100BF00BF7F
:1009400000BF70472DE9F05F80460D461646002730
:1009500001F084FB074639462A46334601F007007A
:10096000C0F1070ABAF1040F02D94FF0040A01E0FE
:10097000C0F1070AD14600F1040ABAF1070F02D20A
:100980004FF0000A01E0A0F1030AD4464FF0010A3B
:100990000AFA09FAAAF1010A0AEA020A0AFA0CFAA0
:1009A0004FF0010B0BFA0CFBABF1010B0BEA030B45
:1009B0004AEA0B042146404601F058FBBDE8F09F8F
:1009C00000BF00F00702064B19684FF6FF031940FD
:1009D000044B0B4343EA0221014B196000BF7047EF
:1009E0000CED00E00000FA0570B504460D460CB9A8
:1009F000012070BD5848006800F00700A84209D2E5
:100A000055490D700846006800F00700A84201D063
:100A10000120EEE7207800F0020002281DD12078A6
:100A200000F00400042805D14C48006840F4E05070
:100A30004A490860207800F00800082805D1474896
:100A4000006840F46040454908604448006820F070
:100A5000F000A168084341490860207800F00100D7
:100A6000A8B36068012807D13C4808380068C0F383
:100A70004040B8B90120BCE76068022802D0606835
:100A8000032807D1354808380068C0F3406048B9EA
:100A90000120AEE7314808380068C0F3400008B9CB
:100AA0000120A6E72D48006820F003006168084394
:100AB0002A490860FFF77EFE064609E0FFF77AFE46
:100AC000801B41F28831884202D9032091E707E078
:100AD0002248006800F00C006168B0EB810FEDD196
:100AE0001D48006800F00700A84209D91A490D7096
:100AF0000846006800F00700A84201D0012078E70E
:100B0000207800F00400042807D11448006820F47D
:100B1000E050E168084311490860207800F00800BF
:100B2000082808D10D48006820F46040216940EA97
:100B3000C1000A49086000F061F808490968C1F37A
:100B40000311074A515CC84006490860064800681E
:100B5000FFF760FE00204CE7003C024008380240EE
:100B6000BE2300084C000020440000200F22026039
:100B70000D4A126802F0030242600B4A126802F04A
:100B8000F0028260084A126802F4E052C260064A2B
:100B9000126802F46042D2080261044A126802F04C
:100BA00007020A607047000008380240003C02401B
:100BB00001480068704700004C00002000B5FFF7B6
:100BC000F7FF04490968C1F38221034A515CC84018
:100BD00000BD000008380240CE23000800B5FFF732
:100BE000E7FF04490968C1F34231034A515CC84038
:100BF00000BD000008380240CE2300082DE9F04770
:100C0000002400250026A1462548006800F00C00BD
:100C100020B1042805D008283AD105E0DFF88490F7
:100C200039E0DFF8849036E01D48001F006800F0CE
:100C30003F041B48001F006800F4800078B11A4888
:100C40001749091F0968C1F38811A0FB017001460B
:100C5000224600233846FFF767FB05460EE01148A1
:100C60000F49091F0968C1F38811A0FB01700146F3
:100C7000224600233846FFF757FB05460848001F69
:100C80000068C0F30140401C4600B5FBF6F902E0E5
:100C9000DFF8109000BF00BF4846BDE8F0870000B5
:100CA000083802400024F40000127A00F8B5044627
:100CB0000CB90120F8BD207800F00100002874D0A4
:100CC000F948006800F00C0004280DD0F6480068D0
:100CD00000F00C00082813D1F348001F006800F44E
:100CE0008000B0F5800F0BD1EF4808380068C0F3E2
:100CF0004040002859D06068002856D10120D9E72B
:100D000000BF6068B0F5803F08D1E7480838006848
:100D100040F48030E449083908601EE06068B0F5AE
:100D2000A02F0DD1E0480838006840F48020DE494B
:100D3000083908600846006840F4803008600CE01C
:100D4000D9480838006820F48030D749083908604D
:100D50000846006820F48020086000BF606890B1F9
:100D6000FFF728FD054606E0FFF724FD401B642839
:100D700001D903209EE7CC4808380068C0F3404002
:100D80000028F1D011E0FFF715FD054606E0FFF75A
:100D900011FD401B642801D903208BE7C2480838A5
:100DA0000068C0F340400028F1D1207800F0020034
:100DB00002285FD1BC48006800F00C0058B1BA4866
:100DC000006800F00C0008281CD1B748001F00681C
:100DD00000F48000B0B9B44808380068C0F340009F
:100DE00020B1E068012801D0012063E7AE4808384F
:100DF000006820F0F800216940EAC100AA490839DA
:100E0000086037E0E06800B30120A8490860FFF7F8
:100E1000D1FC054606E0FFF7CDFC401B022801D9B6
:100E2000032047E7A04808380068C0F340000028C6
:100E3000F1D09D480838006820F0F800216940EAA8
:100E4000C10099490839086014E0002097490860FA
:100E5000FFF7B0FC054606E0FFF7ACFC401B02289C
:100E600001D9032026E7904808380068C0F3400005
:100E70000028F1D1207800F0080008282CD1606902
:100E8000A8B101208A490860FFF794FC054606E0F6
:100E9000FFF790FC401B022801D903200AE7824893
:100EA0006C300068C0F340000028F1D014E000204E
:100EB0007F490860FFF77EFC054606E0FFF77AFCF5
:100EC000401B022801D90320F4E677486C30006803
:100ED000C0F340000028F1D1207800F0040004287D
:100EE00070D1002770483830006800F0805090B909
:100EF00000BF002000906C483830006840F08050FF
:100F00006949383108600846006800F08050009058
:100F100000BF00BF01276748006800F48070B0B9C7
:100F20006448006840F4807062490860FFF742FC42
:100F3000054606E0FFF73EFC401B022801D90320CE
:100F4000B8E65C48006800F480700028F2D000BF6A
:100F5000A068012808D154486830006840F00100BA
:100F60005149683108601DE0A06805280DD14E4840
:100F70006830006840F004004B496831086008465A
:100F8000006840F0010008600CE0474868300068E5
:100F900020F001004449683108600846006820F0EC
:100FA0000400086000BFA068A8B1FFF703FC054675
:100FB00009E0FFF7FFFB401B41F28831884202D96C
:100FC000032077E626E0384868300068C0F3400028
:100FD0000028EED013E0FFF7EDFB054608E0FFF731
:100FE000E9FB401B41F28831884201D9032061E6C8
:100FF0002D4868300068C0F340000028EFD1012F71
:1010000007D129483830006820F08050264938310F
:10101000086000BFA069002845D02348006800F0A0
:101020000C0008285DD0A069022845D100201F4986
:101030000866FFF7BFFB054606E0FFF7BBFB401B5A
:10104000022801D9032035E6174808380068C0F3A4
:1010500040600028F1D1D4E907010843616A40EA01
:1010600081110122A06AC2EB500041EA00412C200C
:10107000005D41EA00600C49091F086001200B492E
:101080000866FFF797FB054606E0FFF793FB401B5A
:10109000022801D903200DE6034808380068C0F390
:1010A00040600028F1D049E0083802400000474283
:1010B000800E474200700040002021490866FFF77B
:1010C00079FB054606E0FFF775FB401B022801D9B6
:1010D0000320EFE51B480068C0F340600028F2D110
:1010E0002CE0A069012800D1E4E51648001D06683F
:1010F000A069012820D006F48001E06981421BD15B
:1011000006F03F01206A814216D147F6C070304098
:10111000616AB0EB811F0FD106F440310122A06A51
:10112000C2EB5000B1EB004F06D106F070612C20ED
:10113000005DB1EB006F01D00120BBE50020B9E5F7
:1011400000004742003802407047704710B504461F
:101150000CB9012010BD94F83D0028B9002084F896
:101160003C00204600F025F8022084F83D00211DB7
:10117000206800F0A1FC012084F8460000BF84F83C
:101180003E0001213F2001554020015541200155DD
:1011900000BF00BF012084F84200432001554420D5
:1011A00001554520015500BF012084F83D00002075
:1011B000D0E77047014691F83D00012801D0012099
:1011C0007047022081F83D000868C06840F00100C7
:1011D0000B68D8601A4B086898421BD00868B0F1B9
:1011E000804F17D0174B0868984213D0164B0868E9
:1011F00098420FD0154B086898420BD0144B0868E2
:10120000984207D0134B0868984203D0124B0868E5
:1012100098420CD10868806800F00702062A0CD0BA
:101220000868006840F001000B68186005E0086875
:10123000006840F001000B6818600020C0E7000063
:10124000000001400004004000080040000C004085
:10125000000401400040014000180040704770B594
:1012600004462068C5682068066906F00200022866
:1012700019D105F00200022815D1401F216808612C
:10128000012020772068806900F0030018B1204613
:10129000FFF7E4FF05E0204600F097F8204600F055
:1012A00095F80020207706F00400042819D105F0F5
:1012B0000400042815D1C04321680861022020776A
:1012C0002068806900F4407018B12046FFF7C6FF1F
:1012D00005E0204600F079F8204600F077F800207D
:1012E000207706F00800082819D105F00800082822
:1012F00015D1C04321680861042020772068C069A7
:1013000000F0030018B12046FFF7A8FF05E02046D3
:1013100000F05BF8204600F059F80020207706F036
:101320001000102819D105F01000102815D1C04365
:1013300021680861082020772068C06900F44070A7
:1013400018B12046FFF78AFF05E0204600F03DF87F
:10135000204600F03BF80020207706F0010048B15D
:1013600005F0010030B16FF00100216808612046EE
:1013700000F02EF806F08000802809D105F08000EA
:10138000802805D1C043216808612046FFF7DCFEB4
:1013900006F04000402809D105F04000402805D162
:1013A000C04321680861204600F01EF806F02000C6
:1013B000202809D105F02000202805D1C04321684C
:1013C00008612046FFF7C1FE70BD704770470000FE
:1013D00010B5044603492068884201D1FFF7F0F9AF
:1013E00010BD0000002000407047704710B5044653
:1013F00006492068884207D10120054908701E224D
:101400000449054800F086FA10BD000000100140B4
:1014100064000020E80100205801002010B50446B7
:1014200000BF00BF21680C3151E8001F21F490700B
:1014300021680C3141E80002002AF3D100BF00BF4F
:1014400000BF2168143151E8001F21F0010021681C
:10145000143141E80002002AF3D100BF206B0128BB
:101460000ED100BF00BF21680C3151E8001F21F0F0
:10147000100021680C3141E80002002AF3D100BFBE
:101480002068406900F04000402826D100BF00BF1E
:101490002168143151E8001F21F040002168143107
:1014A00041E80002002AF3D100BFE06B50B11148BF
:1014B000E16B0865E06BFFF76EF8C0B1E06B016DA2
:1014C000884714E00020E085202084F842000020B6
:1014D00020632046FFF78AFF09E00020E0852020F6
:1014E00084F84200002020632046FFF77FFF0020A1
:1014F00010BD0000AB1B0008704700002DE9F84F3D
:101500000446206805682068C668206847694FF06F
:101510000009CA4605F00F09B9F1000F0AD105F01C
:10152000200038B106F0200020B1204600F091FBE9
:10153000BDE8F88FB9F1000F7CD007F0010018B9B1
:1015400006F49070002875D005F0010030B106F463
:10155000807018B1606C40F00100606405F0040018
:1015600030B107F0010018B1606C40F00200606417
:1015700005F0020030B107F0010018B1606C40F0D6
:101580000400606405F0080048B106F0200010B9BE
:1015900007F0010018B1606C40F008006064606CF6
:1015A000002846D005F0200028B106F0200010B138
:1015B000204600F04EFB20684069C0F3801A606C42
:1015C00000F0080010B9BAF1000F2DD0204600F04D
:1015D000FAFA2068406900F04000402820D100BF9E
:1015E00000BF2168143151E8001F21F0400021683C
:1015F000143141E80002002AF3D100BFE06B50B182
:101600007F48E16B0865E06BFEF7C5FF88B1E06BD2
:10161000016D88470DE02046FFF76EFF09E009E005
:101620002046FFF769FF04E02046FFF765FF002032
:1016300060647DE7206B012878D105F01000002858
:1016400074D006F010000028FAD000BF00200090EF
:1016500020680068009020684068009000BF00BFCC
:101660002068406900F04000402870D1E06B0068BD
:1016700040681FFA80F8B8F1000F58D0A08D40459F
:1016800055DDA4F82E80E06BC069B0F5807F43D0B3
:1016900000BF00BF21680C3151E8001F21F48070A9
:1016A00021680C3141E80002002AF3D100BF00BFDD
:1016B00000BF2168143151E8001F21F001002168AA
:1016C000143141E80002002AF3D100BF00BF00BF7F
:1016D0002168143151E8001F21F0400021681431C5
:1016E00041E80002002AF3D100BF202084F8420024
:1016F0000020206300BF00BF21680C3151E8001FAB
:1017000021F0100021680C3141E80002002AF3D1D9
:1017100000BFE06BFEF7E9FE02206063A08DE28D62
:10172000801A81B22046FFF760FE0EE052E0A08DE5
:1017300040450AD1E06BC069B0F5807F05D1022039
:101740006063A18D2046FFF750FEF1E6FFE7A08D14
:10175000E18D401A1FFA80F8E08DD0B3B8F1000F88
:1017600037D000BF00BF21680C3151E8001F21F4C1
:10177000907021680C3141E80002002AF3D100BFCB
:1017800000BF00BF2168143151E8001F21F00100A3
:101790002168143141E80002002AF3D100BF202063
:1017A00084F842000020206300BF00BF21680C3194
:1017B00051E8001F21F0100021680C3141E80002BF
:1017C000002AF3D100BF0220606341462046FFF7A4
:1017D0000CFEADE605F0800030B106F0800018B1D7
:1017E000204600F0EBFBA3E605F0400030B106F028
:1017F000400018B1204600F01CFA99E600BF97E6B9
:10180000991B000810B504460CB9012010BDA06951
:1018100000B100E000BF94F8410028B9002084F82E
:101820004000204600F02AF8242084F84100206877
:10183000C06820F400502168C860204600F088FA93
:101840002068006920F490402168086120684069A0
:1018500020F02A00216848612068C06840F40050E8
:101860002168C86000206064202084F8410084F86A
:1018700042000020606300BFC8E7000010B586B0DA
:101880000446142101A8FEF7C6FD1F4920688842BE
:1018900038D100BF002000901C48006840F01000C4
:1018A0001A4908600846006800F01000009000BF68
:1018B00000BF00BF0020009014481438006840F0BA
:1018C00001001249143908600846006800F0010060
:1018D000009000BF00BF4FF4C06001900220029052
:1018E00000200390032004900720059001A90848D8
:1018F000FEF766FE002203212520FFF723F82520AE
:10190000FFF70CF806B010BD00100140443802404B
:101910000000024070B504460D46164694F8420099
:1019200020280BD105B10EB9012070BD0020206325
:1019300032462946204600F021FBF6E70220F4E774
:101940007047704700BFFEE708B500BF0020009059
:101950000E48006840F080000C49086008460068A6
:1019600000F08000009000BF00BF00BF002000908A
:101970000846006840F0010008600846006800F072
:101980000100009000BF00BF08BD000030380240D9
:1019900010B50B480B4908604FF4E1304860002156
:1019A00008488160C16001610C21416100218161B1
:1019B000C161FFF727FF08B1FEF794FD10BD0000DD
:1019C000001001405801002000BFFEE700BFFEE705
:1019D00010B500F001FC012801D000F0E3FB10BDC0
:1019E00000B593B0302107A8FEF715FD142102A819
:1019F000FEF711FD00BF002001902448006840F070
:101A00008050224908600846006800F0805001902C
:101A100000BF00BF00BF002001901D48006840F4D7
:101A200080401B4908600846006800F4804001902F
:101A300000BF00BF012007900004089002200D9015
:101A400041050E9104210F91A821109102211191BD
:101A50000421129107A8FFF729F908B1FEF742FD0A
:101A60000F20029002200390002004904FF4A05019
:101A700005904FF480500690052102A8FEF7B4FFB0
:101A800008B1FEF72FFD13B000BD00004038024042
:101A9000007000400348006840F47000014908608D
:101AA0007047000088ED00E010B50248FFF7D7FB53
:101AB00010BD0000A001002010B502682B4B984219
:101AC0000ED0B0F1804F0BD0294B984208D0294B53
:101AD000984205D0284B984202D0284B984203D117
:101AE00022F070024B681A43204B984220D0B0F18C
:101AF000804F1DD01E4B98421AD01E4B984217D0D3
:101B00001D4B984214D01D4B984211D01C4B98424B
:101B10000ED01C4B98420BD01B4B984208D01B4B4D
:101B2000984205D01A4B984202D01A4B984203D1E2
:101B300022F44072CB681A4322F080034C6943EAD6
:101B400004028B68C3620B688362084B984202D020
:101B50000A4B984201D10B690363036843F0040305
:101B6000036001234361026010BD000000000140DA
:101B70000004004000080040000C00400004014048
:101B8000004001400044014000480140001800406E
:101B9000001C00400020004070B50446A56B0020EA
:101BA000E8852846FFF7A8FC70BD70B50546AC6B0C
:101BB0000020E085202084F8420000202063204699
:101BC000FFF714FC70BD00BF00BF02680C3252E882
:101BD000002F22F4907102680C3242E80013002BAF
:101BE000F3D100BF00BF00BF0268143252E8002FDB
:101BF00022F001010268143242E80013002BF3D1F5
:101C000000BF016B01290ED100BF00BF02680C327A
:101C100052E8002F22F0100102680C3242E8001353
:101C2000002BF3D100BF202180F842100021016376
:101C3000704710B504462068C06820F04000216855
:101C4000C860202084F841002046FFF77AFE00207B
:101C500010BDF8B504460025002694F8420022285D
:101C600073D1A068B0F5805F0BD1206948B9A66A2E
:101C700020684068C0F308003080A06A801CA06221
:101C800014E0A56AA068B0F5805F03D0A06828B909
:101C9000206918B920684068287004E0206840680E
:101CA00000F07F002870A06A401CA062E08D401EFA
:101CB00080B2E085002846D12068C06820F020006E
:101CC0002168C8602068C06820F480702168C860FE
:101CD0002068406920F0010021684861202084F8D4
:101CE000420000206063206B012826D10020206381
:101CF00000BF00BF21680C3151E8001F21F0100027
:101D000021680C3141E80002002AF3D100BF2068AD
:101D1000006800F0100010280AD100BF00200090D9
:101D200020680068009020684068009000BF00BFF5
:101D3000A18D2046FFF759FB02E02046FFF700FE89
:101D40000020F8BD01E00020FBE70220F9E70000D9
:101D50002DE9F84F04462068006920F44050E168FE
:101D60000843216808612169A06808436169084344
:101D7000E169084300902068C06849F20C6188431B
:101D8000009908432168C8602068406920F44070C9
:101D9000A16908432168486176492068884203D0D8
:101DA00075492068884203D1FEF718FF814602E09A
:101DB000FEF704FF8146E069B0F5004F6CD10220C8
:101DC0006168A0FB015003461920A9FB0070014681
:101DD0002A463846FEF7A8FA6421B0FBF1F04FEA34
:101DE000001A02206168A0FB01510B461920A9FBD3
:101DF00000712A463846FEF797FA8346022061684A
:101E0000A0FB015003461920A9FB00712A46384661
:101E1000FEF78AFA6421B0FBF1F000EBC00101EBA0
:101E20000010ABEB8000322101EBC0006421B0FB5D
:101E3000F1F000F0F8000AEB400A02206168A0FB14
:101E4000015003461920A9FB007001462A46384676
:101E5000FEF76AFA834602206168A0FB0150034640
:101E60001920A9FB00712A463846FEF75DFA642165
:101E7000B0FBF1F000EBC00101EB0010ABEB800018
:101E8000322101EBC0006421B0FBF1F000F007004B
:101E90005044216888606AE004206168A0FB01501A
:101EA00003461920A9FB007001462A463846FEF772
:101EB0003BFA824604206168A0FB015003461920CA
:101EC000A9FB007001462A463846FEF72DFA642128
:101ED000B0FBF1F000EBC00101EB0010AAEB8000B9
:101EE000322101EB00106421B0FBF1F000F0F00AA8
:101EF00004206168A0FB017003461920A9FB005172
:101F00003A462846FEF710FA6421B0FBF1F00AEBDE
:101F1000001A04206168A0FB01510B461920A9FB9F
:101F200000712A463846FEF7FFF9834604206168AF
:101F3000A0FB015003461920A9FB007001462A4668
:101F40003846FEF7F1F96421B0FBF1F000EBC00177
:101F500001EB0010ABEB8000322101EB001064219B
:101F6000B0FBF1F000F00F00504421688860BDE83C
:101F7000F88F0000001001400014014010B5034626
:101F800099629A85DA8500205864222083F84200FD
:101F9000186928B11868C06840F480701C68E06057
:101FA0001868406940F001001C6860611868C068EA
:101FB00040F020001C68E060002010BD014691F850
:101FC0004100212828D18868B0F5805F0BD10869CD
:101FD00048B90A6A1088C0F308000B685860086A9C
:101FE000801C086205E00B6A581C086218780B68B0
:101FF0005860C88C401E80B2C88458B90868C06850
:1020000020F080000B68D8600868C06840F040008D
:102010000B68D860002070470220FCE708B50D4827
:10202000FFF76CFA0B480068006800F010001028F9
:102030000FD100BF002000900648006800680090A3
:10204000044800684068009000BF00BF0148FFF7E7
:10205000E5F908BD5801002000BFFEE7024800680E
:10206000C0F30220704700000CED00E010B500281E
:1020700004DB0A07130E054A135406E00A07140E80
:10208000034A00F00F031B1FD45410BD00E400E00E
:1020900018ED00E008B5FEF79FFBFFF7A1FCFFF786
:1020A00053FCFFF775FC0E480068C06840F0100054
:1020B0000B490968C8601E220A490948FFF72AFC33
:1020C00000BF0020009006480068006800900448A7
:1020D00000684068009000BF00BF00BFFEE700003E
:1020E00058010020E801002009480068006808B98C
:1020F000012000E0002020B14FF0FF3005490860CA
:1021000005E003480068C06800680249086070473D
:1021100004000020300000201D48006818B1012094
:102120001C49086032E000201A4908601A4800681B
:10213000B0FA80F0C0F11F0101EB8100174A52F89C
:10214000200008B1012000E0002050B900BF50205D
:1021500080F31188BFF34F8FBFF36F8F00BF00BFB5
:10216000FEE701EB81020D4B03EB820042685268EF
:10217000426000F108024368934202D1426852680B
:1021800042604268D268064B1A6000BF7047000088
:102190003C000020240000201800002068000020DF
:1021A0000000002010B500BF502080F31188BFF35D
:1021B0004F8FBFF36F8F00BF00F01EF818B14FF0C4
:1021C00080500449086000BF002080F3118800BFE0
:1021D00010BD000004ED00E00549096809B90120BF
:1021E00005E00449096809B9022000E000207047B1
:1021F0001C0000203C0000202DE9F0414FF00008B9
:102200006148006800287DD160480068451C5F482F
:10221000056015BB5E480068006808B9012000E051
:10222000002050B900BF502080F31188BFF34F8FBA
:10223000BFF36F8F00BF00BFFEE7554807685548E2
:102240000068534908605348076053480068401CC1
:1022500051490860FFF748FF00BF504800688542B9
:1022600077D300BF4A480068006808B9012000E041
:10227000002020B14FF0FF304849086068E0444832
:102280000068C068C4686668B54202D24348066008
:102290005EE06069D4E902128A60D4E902214A60F2
:1022A000211D42688A4201D1E168416000226261D9
:1022B0000168491E0160A06A98B1A06AD4E90712BA
:1022C0008A60D4E907214A6004F1180142688A4211
:1022D00001D1216A41600022A2620168491E0160A9
:1022E00000BF94F82C10012088402D49096808434C
:1022F0002B490860E16A01EB81012A4A02EB810166
:10230000486800E037E0A0608268E260211D8268D2
:1023100051608160E16A01EB8101224A02EB810296
:102320006261E16A01EB81011E4A52F82110491CE9
:10233000E26A02EB82021B4B43F822101A49E06A60
:102340000968C96A88428DD94FF001088AE700E020
:1023500000BF15480068C06A00EB8000114951F8C1
:102360002000012801D94FF001081048006808B189
:102370004FF0010804E00E480068401C0C4908605A
:102380004046BDE8F08100003C0000201400002021
:102390000400002008000020280000203000002059
:1023A0001800002068000020000000202400002009
:1023B000200000204FF04070E1EE100A704700004E
:1023C00000000000000001020304060708090000E5
:1023D0000000010203040000F823000800000020B0
:1023E00068000000C40100086024000868000020A4
:1023F00000080000E00100080000000000000000EC
:1024000000000000000000000000000000000000CC
:1024100000000000000000000000000000000000BC
:1024200000000000000000000000000000000000AC
:102430000600000000000000000000001000000086
:10244000010000000024F400000000000000000073
:10245000000000000000000000000000000000007C
:040000050800018965
:00000001FF
